{
  "_format": "hh-sol-artifact-1",
  "contractName": "Raffle",
  "sourceName": "contracts/Raffle.sol",
  "abi": [
    {
      "inputs": [
        {
          "internalType": "address",
          "name": "vrfCoordinatorV2",
          "type": "address"
        },
        {
          "internalType": "uint256",
          "name": "entranceFee",
          "type": "uint256"
        },
        {
          "internalType": "bytes32",
          "name": "gasLane",
          "type": "bytes32"
        },
        {
          "internalType": "uint64",
          "name": "subscriptionId",
          "type": "uint64"
        },
        {
          "internalType": "uint32",
          "name": "callbackGasLimit",
          "type": "uint32"
        },
        {
          "internalType": "uint256",
          "name": "interval",
          "type": "uint256"
        }
      ],
      "stateMutability": "nonpayable",
      "type": "constructor"
    },
    {
      "inputs": [
        {
          "internalType": "address",
          "name": "have",
          "type": "address"
        },
        {
          "internalType": "address",
          "name": "want",
          "type": "address"
        }
      ],
      "name": "OnlyCoordinatorCanFulfill",
      "type": "error"
    },
    {
      "inputs": [],
      "name": "Raffle_NotEnoughETHRequired",
      "type": "error"
    },
    {
      "inputs": [],
      "name": "Raffle_TxFailed",
      "type": "error"
    },
    {
      "inputs": [],
      "name": "Raffle__NotOpened",
      "type": "error"
    },
    {
      "inputs": [
        {
          "internalType": "uint256",
          "name": "currentbal",
          "type": "uint256"
        },
        {
          "internalType": "uint256",
          "name": "numPlayers",
          "type": "uint256"
        },
        {
          "internalType": "uint256",
          "name": "raffleState",
          "type": "uint256"
        }
      ],
      "name": "Raffle__UpKeepNotNeeded",
      "type": "error"
    },
    {
      "anonymous": false,
      "inputs": [
        {
          "indexed": true,
          "internalType": "address",
          "name": "player",
          "type": "address"
        }
      ],
      "name": "RaffleEnter",
      "type": "event"
    },
    {
      "anonymous": false,
      "inputs": [
        {
          "indexed": true,
          "internalType": "address",
          "name": "Winner",
          "type": "address"
        }
      ],
      "name": "WinnerPicked",
      "type": "event"
    },
    {
      "anonymous": false,
      "inputs": [
        {
          "indexed": true,
          "internalType": "uint256",
          "name": "rEQUEST_ID",
          "type": "uint256"
        }
      ],
      "name": "requestedRandomWinner",
      "type": "event"
    },
    {
      "inputs": [
        {
          "internalType": "bytes",
          "name": "checkData",
          "type": "bytes"
        }
      ],
      "name": "checkUpkeep",
      "outputs": [
        {
          "internalType": "bool",
          "name": "upkeepNeeded",
          "type": "bool"
        },
        {
          "internalType": "bytes",
          "name": "",
          "type": "bytes"
        }
      ],
      "stateMutability": "view",
      "type": "function"
    },
    {
      "inputs": [],
      "name": "enterRaffle",
      "outputs": [],
      "stateMutability": "payable",
      "type": "function"
    },
    {
      "inputs": [],
      "name": "getConfirmations",
      "outputs": [
        {
          "internalType": "uint256",
          "name": "",
          "type": "uint256"
        }
      ],
      "stateMutability": "pure",
      "type": "function"
    },
    {
      "inputs": [],
      "name": "getEntranceFee",
      "outputs": [
        {
          "internalType": "uint256",
          "name": "",
          "type": "uint256"
        }
      ],
      "stateMutability": "view",
      "type": "function"
    },
    {
      "inputs": [],
      "name": "getNumWords",
      "outputs": [
        {
          "internalType": "uint256",
          "name": "",
          "type": "uint256"
        }
      ],
      "stateMutability": "pure",
      "type": "function"
    },
    {
      "inputs": [
        {
          "internalType": "uint256",
          "name": "index",
          "type": "uint256"
        }
      ],
      "name": "getPlayer",
      "outputs": [
        {
          "internalType": "address",
          "name": "",
          "type": "address"
        }
      ],
      "stateMutability": "view",
      "type": "function"
    },
    {
      "inputs": [],
      "name": "getRaffleState",
      "outputs": [
        {
          "internalType": "enum Raffle.RaffleState",
          "name": "",
          "type": "uint8"
        }
      ],
      "stateMutability": "view",
      "type": "function"
    },
    {
      "inputs": [],
      "name": "getRecentWinner",
      "outputs": [
        {
          "internalType": "address",
          "name": "",
          "type": "address"
        }
      ],
      "stateMutability": "view",
      "type": "function"
    },
    {
      "inputs": [],
      "name": "latestTime",
      "outputs": [
        {
          "internalType": "uint256",
          "name": "",
          "type": "uint256"
        }
      ],
      "stateMutability": "view",
      "type": "function"
    },
    {
      "inputs": [],
      "name": "numberOfPlayers",
      "outputs": [
        {
          "internalType": "uint256",
          "name": "",
          "type": "uint256"
        }
      ],
      "stateMutability": "view",
      "type": "function"
    },
    {
      "inputs": [
        {
          "internalType": "bytes",
          "name": "",
          "type": "bytes"
        }
      ],
      "name": "performUpkeep",
      "outputs": [],
      "stateMutability": "nonpayable",
      "type": "function"
    },
    {
      "inputs": [
        {
          "internalType": "uint256",
          "name": "requestId",
          "type": "uint256"
        },
        {
          "internalType": "uint256[]",
          "name": "randomWords",
          "type": "uint256[]"
        }
      ],
      "name": "rawFulfillRandomWords",
      "outputs": [],
      "stateMutability": "nonpayable",
      "type": "function"
    }
  ],
  "bytecode": "0x6101406040523480156200001257600080fd5b50604051620017923803806200179283398181016040528101906200003891906200029e565b858073ffffffffffffffffffffffffffffffffffffffff1660808173ffffffffffffffffffffffffffffffffffffffff1660601b81525050508460a081815250508573ffffffffffffffffffffffffffffffffffffffff1660c08173ffffffffffffffffffffffffffffffffffffffff1660601b815250508360e081815250508267ffffffffffffffff166101008167ffffffffffffffff1660c01b815250508163ffffffff166101208163ffffffff1660e01b815250506000600160146101000a81548160ff021916908360018111156200011957620001186200033a565b5b0217905550426002819055508060038190555050505050505062000369565b600080fd5b600073ffffffffffffffffffffffffffffffffffffffff82169050919050565b60006200016a826200013d565b9050919050565b6200017c816200015d565b81146200018857600080fd5b50565b6000815190506200019c8162000171565b92915050565b6000819050919050565b620001b781620001a2565b8114620001c357600080fd5b50565b600081519050620001d781620001ac565b92915050565b6000819050919050565b620001f281620001dd565b8114620001fe57600080fd5b50565b6000815190506200021281620001e7565b92915050565b600067ffffffffffffffff82169050919050565b620002378162000218565b81146200024357600080fd5b50565b60008151905062000257816200022c565b92915050565b600063ffffffff82169050919050565b62000278816200025d565b81146200028457600080fd5b50565b60008151905062000298816200026d565b92915050565b60008060008060008060c08789031215620002be57620002bd62000138565b5b6000620002ce89828a016200018b565b9650506020620002e189828a01620001c6565b9550506040620002f489828a0162000201565b94505060606200030789828a0162000246565b93505060806200031a89828a0162000287565b92505060a06200032d89828a01620001c6565b9150509295509295509295565b7f4e487b7100000000000000000000000000000000000000000000000000000000600052602160045260246000fd5b60805160601c60a05160c05160601c60e0516101005160c01c6101205160e01c6113bf620003d3600039600061062b01526000610608015260006105e7015260006105ab0152600081816102b401526103b10152600081816102f1015261034501526113bf6000f3fe6080604052600436106100a75760003560e01c806353a2c19a1161006457806353a2c19a146101895780636e04ff0d146101b45780636f4bda17146101f25780637dfd16d71461021d578063c361ce8314610248578063e55ae4e814610273576100a7565b806309bc33a7146100ac578063115cbaf5146100d75780631fe543e3146101025780632cfcc5391461012b5780634585e33b14610135578063473f1ddc1461015e575b600080fd5b3480156100b857600080fd5b506100c16102b0565b6040516100ce9190610b40565b60405180910390f35b3480156100e357600080fd5b506100ec6102d8565b6040516100f99190610bd2565b60405180910390f35b34801561010e57600080fd5b5061012960048036038101906101249190610d86565b6102ef565b005b6101336103af565b005b34801561014157600080fd5b5061015c60048036038101906101579190610e3d565b61051e565b005b34801561016a57600080fd5b5061017361071d565b6040516101809190610ecb565b60405180910390f35b34801561019557600080fd5b5061019e610747565b6040516101ab9190610b40565b60405180910390f35b3480156101c057600080fd5b506101db60048036038101906101d69190610f9b565b610756565b6040516101e9929190611087565b60405180910390f35b3480156101fe57600080fd5b506102076107e5565b6040516102149190610b40565b60405180910390f35b34801561022957600080fd5b506102326107f1565b60405161023f9190610b40565b60405180910390f35b34801561025457600080fd5b5061025d6107fb565b60405161026a9190610b40565b60405180910390f35b34801561027f57600080fd5b5061029a600480360381019061029591906110b7565b610808565b6040516102a79190610ecb565b60405180910390f35b60007f0000000000000000000000000000000000000000000000000000000000000000905090565b6000600160149054906101000a900460ff16905090565b7f000000000000000000000000000000000000000000000000000000000000000073ffffffffffffffffffffffffffffffffffffffff163373ffffffffffffffffffffffffffffffffffffffff16146103a157337f00000000000000000000000000000000000000000000000000000000000000006040517f1cf993f40000000000000000000000000000000000000000000000000000000081526004016103989291906110e4565b60405180910390fd5b6103ab828261084f565b5050565b7f0000000000000000000000000000000000000000000000000000000000000000341015610409576040517fcf38f7c200000000000000000000000000000000000000000000000000000000815260040160405180910390fd5b6000600181111561041d5761041c610b5b565b5b600160149054906101000a900460ff16600181111561043f5761043e610b5b565b5b14610476576040517f21025eb500000000000000000000000000000000000000000000000000000000815260040160405180910390fd5b6000339080600181540180825580915050600190039060005260206000200160009091909190916101000a81548173ffffffffffffffffffffffffffffffffffffffff021916908373ffffffffffffffffffffffffffffffffffffffff1602179055503373ffffffffffffffffffffffffffffffffffffffff167f0805e1d667bddb8a95f0f09880cf94f403fb596ce79928d9f29b74203ba284d460405160405180910390a2565b600061053860405180602001604052806000815250610756565b509050806105a75747600080549050600160149054906101000a900460ff16600181111561056957610568610b5b565b5b6040517f3a8d608600000000000000000000000000000000000000000000000000000000815260040161059e9392919061110d565b60405180910390fd5b60007f000000000000000000000000000000000000000000000000000000000000000073ffffffffffffffffffffffffffffffffffffffff16635d3b1d307f00000000000000000000000000000000000000000000000000000000000000007f000000000000000000000000000000000000000000000000000000000000000060037f000000000000000000000000000000000000000000000000000000000000000060026040518663ffffffff1660e01b815260040161066c9594939291906111bc565b602060405180830381600087803b15801561068657600080fd5b505af115801561069a573d6000803e3d6000fd5b505050506040513d601f19601f820116820180604052508101906106be9190611224565b905060018060146101000a81548160ff021916908360018111156106e5576106e4610b5b565b5b0217905550807fdd178cd66913b03cc6ff7831dcbaab26c0ba151b22ace716e22f93551917c87c60405160405180910390a250505050565b6000600160009054906101000a900473ffffffffffffffffffffffffffffffffffffffff16905090565b6000600263ffffffff16905090565b600060606000600160149054906101000a900460ff16600181111561077e5761077d610b5b565b5b6000600181111561079257610791610b5b565b5b1490506000600354600254426107a89190611280565b119050600080600080549050119050600080471190508380156107c85750825b80156107d15750815b80156107da5750805b955050505050915091565b60008080549050905090565b6000600254905090565b6000600361ffff16905090565b600080828154811061081d5761081c6112b4565b5b9060005260206000200160009054906101000a900473ffffffffffffffffffffffffffffffffffffffff169050919050565b600080805490508260008151811061086a576108696112b4565b5b602002602001015161087c9190611312565b90506000808281548110610893576108926112b4565b5b9060005260206000200160009054906101000a900473ffffffffffffffffffffffffffffffffffffffff16905080600160006101000a81548173ffffffffffffffffffffffffffffffffffffffff021916908373ffffffffffffffffffffffffffffffffffffffff16021790555060008173ffffffffffffffffffffffffffffffffffffffff164760405161092790611374565b60006040518083038185875af1925050503d8060008114610964576040519150601f19603f3d011682016040523d82523d6000602084013e610969565b606091505b50509050806109a4576040517f3cecbaba00000000000000000000000000000000000000000000000000000000815260040160405180910390fd5b6000600160146101000a81548160ff021916908360018111156109ca576109c9610b5b565b5b0217905550600067ffffffffffffffff8111156109ea576109e9610c43565b5b604051908082528060200260200182016040528015610a185781602001602082028036833780820191505090505b5060009080519060200190610a2e929190610a80565b50426002819055508173ffffffffffffffffffffffffffffffffffffffff167f5b690ec4a06fe979403046eaeea5b3ce38524683c3001f662c8b5a829632f7df60405160405180910390a25050505050565b828054828255906000526020600020908101928215610af9579160200282015b82811115610af85782518260006101000a81548173ffffffffffffffffffffffffffffffffffffffff021916908373ffffffffffffffffffffffffffffffffffffffff16021790555091602001919060010190610aa0565b5b509050610b069190610b0a565b5090565b5b80821115610b23576000816000905550600101610b0b565b5090565b6000819050919050565b610b3a81610b27565b82525050565b6000602082019050610b556000830184610b31565b92915050565b7f4e487b7100000000000000000000000000000000000000000000000000000000600052602160045260246000fd5b60028110610b9b57610b9a610b5b565b5b50565b6000819050610bac82610b8a565b919050565b6000610bbc82610b9e565b9050919050565b610bcc81610bb1565b82525050565b6000602082019050610be76000830184610bc3565b92915050565b6000604051905090565b600080fd5b600080fd5b610c0a81610b27565b8114610c1557600080fd5b50565b600081359050610c2781610c01565b92915050565b600080fd5b6000601f19601f8301169050919050565b7f4e487b7100000000000000000000000000000000000000000000000000000000600052604160045260246000fd5b610c7b82610c32565b810181811067ffffffffffffffff82111715610c9a57610c99610c43565b5b80604052505050565b6000610cad610bed565b9050610cb98282610c72565b919050565b600067ffffffffffffffff821115610cd957610cd8610c43565b5b602082029050602081019050919050565b600080fd5b6000610d02610cfd84610cbe565b610ca3565b90508083825260208201905060208402830185811115610d2557610d24610cea565b5b835b81811015610d4e5780610d3a8882610c18565b845260208401935050602081019050610d27565b5050509392505050565b600082601f830112610d6d57610d6c610c2d565b5b8135610d7d848260208601610cef565b91505092915050565b60008060408385031215610d9d57610d9c610bf7565b5b6000610dab85828601610c18565b925050602083013567ffffffffffffffff811115610dcc57610dcb610bfc565b5b610dd885828601610d58565b9150509250929050565b600080fd5b60008083601f840112610dfd57610dfc610c2d565b5b8235905067ffffffffffffffff811115610e1a57610e19610de2565b5b602083019150836001820283011115610e3657610e35610cea565b5b9250929050565b60008060208385031215610e5457610e53610bf7565b5b600083013567ffffffffffffffff811115610e7257610e71610bfc565b5b610e7e85828601610de7565b92509250509250929050565b600073ffffffffffffffffffffffffffffffffffffffff82169050919050565b6000610eb582610e8a565b9050919050565b610ec581610eaa565b82525050565b6000602082019050610ee06000830184610ebc565b92915050565b600080fd5b600067ffffffffffffffff821115610f0657610f05610c43565b5b610f0f82610c32565b9050602081019050919050565b82818337600083830152505050565b6000610f3e610f3984610eeb565b610ca3565b905082815260208101848484011115610f5a57610f59610ee6565b5b610f65848285610f1c565b509392505050565b600082601f830112610f8257610f81610c2d565b5b8135610f92848260208601610f2b565b91505092915050565b600060208284031215610fb157610fb0610bf7565b5b600082013567ffffffffffffffff811115610fcf57610fce610bfc565b5b610fdb84828501610f6d565b91505092915050565b60008115159050919050565b610ff981610fe4565b82525050565b600081519050919050565b600082825260208201905092915050565b60005b8381101561103957808201518184015260208101905061101e565b83811115611048576000848401525b50505050565b600061105982610fff565b611063818561100a565b935061107381856020860161101b565b61107c81610c32565b840191505092915050565b600060408201905061109c6000830185610ff0565b81810360208301526110ae818461104e565b90509392505050565b6000602082840312156110cd576110cc610bf7565b5b60006110db84828501610c18565b91505092915050565b60006040820190506110f96000830185610ebc565b6111066020830184610ebc565b9392505050565b60006060820190506111226000830186610b31565b61112f6020830185610b31565b61113c6040830184610b31565b949350505050565b6000819050919050565b61115781611144565b82525050565b600067ffffffffffffffff82169050919050565b61117a8161115d565b82525050565b600061ffff82169050919050565b61119781611180565b82525050565b600063ffffffff82169050919050565b6111b68161119d565b82525050565b600060a0820190506111d1600083018861114e565b6111de6020830187611171565b6111eb604083018661118e565b6111f860608301856111ad565b61120560808301846111ad565b9695505050505050565b60008151905061121e81610c01565b92915050565b60006020828403121561123a57611239610bf7565b5b60006112488482850161120f565b91505092915050565b7f4e487b7100000000000000000000000000000000000000000000000000000000600052601160045260246000fd5b600061128b82610b27565b915061129683610b27565b9250828210156112a9576112a8611251565b5b828203905092915050565b7f4e487b7100000000000000000000000000000000000000000000000000000000600052603260045260246000fd5b7f4e487b7100000000000000000000000000000000000000000000000000000000600052601260045260246000fd5b600061131d82610b27565b915061132883610b27565b925082611338576113376112e3565b5b828206905092915050565b600081905092915050565b50565b600061135e600083611343565b91506113698261134e565b600082019050919050565b600061137f82611351565b915081905091905056fea264697066735822122080c36fa5bc9d171a50c4f9f823502deb64897822247542dc2c3a4e75a1a7a08164736f6c63430008080033",
  "linkReferences": {},
  "deployedLinkReferences": {}
}